:020000041000EA
:1000000000000220C9260010B510001007270010BC
:10001000092700100B2700100D270010000000001A
:100020000000000000000000000000000F2700108A
:1000300011270010000000001327001015270010E2
:10004000192700101B2700101D2700101F27001064
:100050002127001023270010252700102727001034
:10006000292700102B2700102D2700102F27001004
:1000700031270010332700103527001037270010D4
:10008000392700103B2700103D2700103F270010A4
:100090004127001043270010452700104727001074
:1000A00039100010411000104D2700104F2700108C
:1000B0005127001053270010552700105727001014
:1000C000592700105B2700105D2700105F270010E4
:1000D00061270010632700106527001067270010B4
:1000E000692700106B2700106D2700106F27001084
:1000F0007127001073270010752700107727001054
:10010000792700107B2700107D2700107F27001023
:1001100081270010832700108527001087270010F3
:10012000892700108B2700108D2700108F270010C3
:100130009127001093270010952700109727001093
:10014000992700109B2700109D2700109F27001063
:10015000A1270010A3270010A5270010A727001033
:10016000A9270010AB270010AD270010AF27001003
:10017000B1270010B3270010B5270010B7270010D3
:10018000B9270010BB270010BD270010BF270010A3
:10019000C1270010C3270010C5270010C727001073
:1001A000C9270010CB270010CD270010CF27001043
:1001B000D1270010D3270010D5270010D727001013
:1001C000D9270010DB270010DD270010DF270010E3
:1001D000E1270010E3270010E5270010E7270010B3
:1001E00010B5054C237833B9044B13B10448AFF371
:1001F00000800123237010BD000C002000000000CF
:1002000070D5011008B5034B1BB103490348AFF388
:10021000008008BD00000000040C002070D5011013
:100220000E480F49026808B50E4B1A4002600A6872
:1002300000F500001A400A60026801F500011A404A
:1002400002600A6813400B60012000F0E5FF0648D9
:1002500004F070F8054B186008BD00BF0000105096
:1002600000005050FEAFFFFF000001401C0C0020BA
:10027000104B30B5104D19464FF0010E41F0010101
:1002800005F1080C81F800E06D686A1E85B16146D1
:10029000013A51F8044B1C60501C03F10403F7D1E0
:1002A0000CEB850529680B460029E7D1012030BDFC
:1002B0006546F7E700001850A8DF0010034B1A202E
:1002C000E521EC2283E807000120704700801050F0
:1002D000F0B40E480E4E0F4D0F4C104F104940F227
:1002E0000E4206234FF0000CC7F800C03160726068
:1002F000B36029606A60AB60016042608360216026
:1003000001206260A360F0BC704700BF0000905005
:1003100000001050000050500000D050001000505D
:1003200008801000EF4BF0492DE9F04F4FF4923266
:10033000EE4F1F61C3F89070C3F810234FF40052C2
:10034000C3F810244FF4F04B4FF432627825C3F811
:100350009025C3F810BAC3F810567F25C3F89056FD
:100360004FF40835C3F890574FF00715E04CC3F829
:10037000105701200225C3F810084FF4804CC3F831
:1003800010594FF49235C3F890C92761C4F89070A2
:10039000C4F810534FF40055C4F810544FF43265AC
:1003A000C4F890557825C4F810BAC4F810567F25C3
:1003B000C4F890564FF40835C4F890570225C4F895
:1003C0001008C4F810594FF49235C4F890C90F6161
:1003D000C1F89070C1F810534FF40055C1F8105493
:1003E0004FF43265C1F890557825C1F810BAC1F8BC
:1003F00010567F25C1F890564FF40835BD4AC1F814
:1004000090570225C1F81008C1F810594FF49235E1
:10041000C1F890C91761C2F89070C2F810534FF438
:100420000055C2F810544FF43265C2F89055782543
:10043000C2F810BAC2F810567F25C2F890564FF491
:100440000835C2F8905702254FF4006EC2F8100824
:10045000C2F810594FF40055C2F890C95F61C3F853
:100460009470C3F89401C3F81402C3F89402C3F85B
:1004700014E3C3F814544FF480654FF47848C3F87C
:1004800014554CF6A03CF825C3F894C59A4EC3F811
:10049000148AC3F814564FF40835C3F89466C3F8A9
:1004A00094574FF4C675C3F81458944EC3F8946823
:1004B00040F20E25C3F814594FF400556761C4F893
:1004C0009470C4F89401C4F81402C4F89402C4F8F7
:1004D00014E3C4F814544FF48065C4F814554FF471
:1004E0003A6AF825C4F894A5834EC4F8148AC4F86F
:1004F00014564FF40835C4F89466C4F894574FF472
:10050000C675C4F814587D4EC4F8946840F20E25A0
:10051000C4F814594FF400554F61C1F89470C1F8F4
:100520009401C1F81402C1F89402C1F814E3C1F8AF
:1005300014544FF48065C1F81455F825C1F894A5FA
:100540006D4EC1F8148AC1F814564FF40835C1F83D
:1005500094666FF00F1CC1F894574FF4C675C1F83C
:1005600014C7664EC1F8145840F20E25C1F89468BD
:10057000C1F814594FF400555761C2F89470C2F88D
:100580009401C2F81402C2F89402C2F814E3C2F84B
:1005900014544FF48065C2F81455F825C2F894A598
:1005A000554EC2F8148AC2F814564FF40835C2F8F2
:1005B00094664FF00F17C2F894574FF4C675C2F8FF
:1005C00014774E4EC2F8145840F20E25C2F89468C3
:1005D0004B4FC2F814594FF400559F61C3F89870FF
:1005E000C3F89801C3F81802C3F89802C3F8185466
:1005F00042F6A035C3F818E5C3F898554FF4FC351A
:10060000C3F8185A3F4EC3F818661F25C3F898560A
:100610004FF408354FF0FF39C3F898574FF40055A1
:10062000C3F81897A761C4F89870C4F89801C4F883
:100630001802C4F89802C4F818544FF4FC35C4F8F2
:1006400018E5C4F898A5C4F8185A1F25C4F8186608
:10065000C4F898564FF40835C4F898574FF400552D
:10066000C4F818978F61C1F89870C1F89801C1F863
:100670001802C1F89802C1F818544FF4FC35C1F8BB
:1006800018E5C1F898A5C1F8185A1F25C1F81866D1
:10069000C1F898564FF40835C1F898574FF40055F3
:1006A0009761C2F89870C2F89801C2F81802C2F8AF
:1006B0009802C2F818544FF4FC35C2F818E5C2F895
:1006C00098A5C2F8185A1F25C2F81866C2F898569D
:1006D0004FF40835C2F89857203F4FF40055DF61BA
:1006E00012E000BF00001050000090508100010097
:1006F000000050500000D050BF0080002100840056
:100700004100010078028000F34EC3F89C70C3F8EA
:100710009C014EF6A037C3F81C02C3F89C02C3F834
:100720001CE3C3F81C540F25C3F89C75C3F81C8A3E
:10073000C3F81C66C3F89C564FF40835C3F89C57A1
:10074000E64FC3F81C974FF40055E761C4F89C705E
:10075000C4F89C01C4F81C02C4F89C02C4F81CE351
:10076000C4F81C540F25C4F89CA5C4F81C8AC4F80E
:100770001C66C4F89C564FF40835C4F89C574FF4D7
:100780000055C4F81C97CF61C1F89C70C1F89C015A
:10079000C1F81C02C1F89C02C1F81CE3C1F81C544A
:1007A0000F25C1F89CA5C1F81C8AC1F81C66C1F8C8
:1007B0009C564FF40835C1F89C574FF40055C1F8CA
:1007C0001C97D761C2F89C70C2F89C01C2F81C0249
:1007D000C2F89C02C2F81CE3C2F81C540F25C2F8F0
:1007E0009CA5C2F81C8AC2F81C66C2F89C564FF43D
:1007F0000835C2F89C57103F4FF48035C2F81C975B
:100800001F62C3F8A070C3F8A001C3F82002C3F8A8
:10081000A002C3F820534FF40055C3F8205442F609
:10082000A035C3F820E506F10126C3F8A055072539
:10083000C3F8208AC3F82066C3F8A0564FF40835E1
:10084000C3F8A0574FF48035C3F820972762C4F847
:10085000A070C4F8A001C4F82002C4F8A002C4F833
:1008600020534FF40055C4F820540725C4F820E560
:10087000C4F8A0A5C4F8208AC4F82066C4F8A0561D
:100880004FF40835C4F8A0574FF48035C4F82097CA
:100890000F62C1F8A070C1F8A001C1F82002C1F830
:1008A000A002C1F820534FF40055C1F82054072589
:1008B000C1F820E5C1F8A0A5C1F8208AC1F82066DA
:1008C000C1F8A0564FF40835C1F8A0574FF4803551
:1008D0001762C2F8A070C2F8A001C2F82002C2F8E4
:1008E000A002C2F820534FF40055C2F82054072547
:1008F000C2F820E5C2F8A0A5C2F8208AC2F8206696
:10090000C2F8A0564FF40835C2F8A057083F4FF47C
:1009100000555F62724EC3F8A470C3F824E34CF62E
:100920002037C3F824540725C3F8A475C3F824BAA4
:10093000C3F82466C3F8A4564FF40835C3F8A45787
:10094000684F67624FF40055C4F8A470C4F824E3FC
:10095000C4F824544FF43265C4F8A4550725C4F8EC
:1009600024BAC4F82466C4F8A4564FF40835C4F871
:10097000A4574FF400554F62C1F8A470C1F824E3A6
:10098000C1F824544FF43265C1F8A4550725C1F8C5
:1009900024BAC1F82466C1F8A4564FF40835C1F84A
:1009A000A4574FF40055C1F824975762C2F8A470B9
:1009B000C2F824E3C2F824544FF43265C2F8A455B7
:1009C0000725C2F824BAC2F82466C2F8A4564FF428
:1009D0000835C2F8A4574FF48065C2F82497C3F8CD
:1009E00028534FF40055C3F8A8033F4EC3F82854CA
:1009F00041F20F05C3F828E53C4FC3F8A865C3F8DA
:100A0000285A4FF48075C3F82876C3F82851384D1A
:100A1000C3F8A856374DC3F8A857C3F828974FF422
:100A20008063C4F828334FF40053C4F8A8034FF48C
:100A30008075C4F82834C4F828E53346C4F8A8659E
:100A400041F20F06C4F8286A3E46C4F82876284FBB
:100A5000C4F82851284DC4F8A876C4F8A8574FF414
:100A60008064C1F828434FF40054C1F8A803C1F8CA
:100A7000284441F20F04C1F828E5C1F8A835C1F8AF
:100A8000284AC1F8286634464FF48076C1F82861B8
:100A9000C1F8A876C1F8A8574FF48061C2F82813AE
:100AA0004FF40051C2F8A803C2F82814C2F828E590
:100AB000C2F8A83541F20F03C2F8283A4FF4807308
:100AC000C2F82846C2F82831C2F8A876C2F8A8575A
:100AD0004FF0A04212E000BF780380022100010025
:100AE000780100010900010020090100782E80280A
:100AF0007F003F0000500E0800400E0841F608132A
:100B00001360BDE8F08F00BFF8B50B490B4A0C4BE2
:100B10000C4D0D4E0D4C0E480027376028600C60C0
:100B20000C4814601C6003F003FC012000F054FB2F
:100B30002C600120F8BD00BF000050500000905014
:100B40000000D050000010501C0C002009C81800F4
:100B500008C8180000000140044B1A6802605A6877
:100B600042609B6883600120704700BF00104050C6
:100B70000C4B0F2210B5DA6000245A601A604FF057
:100B800080429C60DC60936923F470330343194313
:100B90009161192002F00CF80349652001F09CFFD7
:100BA000012010BD00580040210200102DE9F04145
:100BB00084B000F07DFE03AB02AA01A9684600F0F4
:100BC0009DFE019B2348DDE9021204F0D7FE039B42
:100BD000002B30DD0025204F204C2E4602E000F097
:100BE00085FE20B900F0A8FE80460028F7D0029BC1
:100BF0004FEA830CBCF1000F17DD07EB86020CF106
:100C0000FF3E4046043AC444437890F8028010F80E
:100C1000041B1B0243EA08430B436340844542F82C
:100C2000043FF1D106EB9E06013600F08BFE039BDC
:100C30000135AB42D6DC00F08BFE416811B904B03F
:100C4000BDE8F081064804F099FE012000F0C4FAE6
:100C5000FEE700BFDCC80110200C0020808080006F
:100C6000F0C801102DE9F84F4FF0020BDFF8888033
:100C7000204F00F5007A00F581395D46AAF5007431
:100C8000032601E0544524D0022D04F10404C5F1EB
:100C90000305F7D1BBF1020FF4D114F8043C14F8AA
:100CA000021C14F8032C81F0800183F0800382F091
:100CB000800216FB031303EB8203DB1003EBC30379
:100CC000A7FB0323A8EBD313587A04F06BFE54451B
:100CD000DAD1BBF1020F07D04FF0020B0AF5007A10
:100CE000D145CBD1BDE8F88F0A2004F05BFE4FF070
:100CF000010BF3E78180808034CB01102DE9F04FA8
:100D0000824883B001F0AEFE012000F0D5F98048A2
:100D100004F09EFE7F4802F0F7FF042001F0E8FF98
:100D200001F09CFD7C4804F093FE7C4801F09AFEA3
:100D30004FF480310020FFF71BFF794804F088FE54
:100D4000FFF7C6FAFFF794FAFFF7B8FAFFF7EAFAE7
:100D500002F052F902F06EF90446724804F078FE8F
:100D6000714800F01DFC0346002840F0AF80802150
:100D70000222CDE900240846042200F0A7FC014627
:100D8000002840F0AC80112000F08CFD674804F092
:100D90005FFE002000F094FA0028FAD0DFF8D8A116
:100DA000DFF8D8B1002000F037FA012000F034FA63
:100DB000FFF7FCFE0023CAF80030FFF7A5FE5C49F0
:100DC0004FF0A0425368D807FCD451F8043B93601D
:100DD0005945F7D1574A136923F004031361DAF830
:100DE000003023B930BFDAF80030002BFAD0524877
:100DF000DFF84C91DFF84081504FFFF7ADFE504ACD
:100E00004D48032100F0BCF84E4804F021FEDAF80A
:100E100000104D4804F0B2FD4C4804F019FE4FF0AC
:100E2000FF340026254639F9023B4FF480424FF447
:100E30007A7113FB0123464AD81382FB0021DB178A
:100E4000C3EBA10101EB810CA0420B46A0EB4C01CE
:100E5000C4BF044635463A4600913E4858F8041B44
:100E6000013604F08BFD032E07F11407DBD13A485D
:100E70000022502104F082FD6B1C43D0344BE2175A
:100E800083FB0413C2EBA302B4F5487F02EB820399
:100E900029DB2A49314805EB8505A4EB430301EB27
:100EA000850104F06BFD02212D4804F067FD204808
:100EB000FFF7D8FE2B4804F0CBFD1C4804F0C8FD1A
:100EC000002000F0FDF90028FAD06BE70146264823
:100ED00004F054FD4FF0FF3003B0BDE8F08F23481D
:100EE00004F04CFDF6E7A4EB4303144C204805EB5B
:100EF000850100265025CDE9005604EB810104F060
:100F00003DFDD0E71B4804F0A3FDCCE7400D0300F6
:100F100004C9011000A0024028C9011080841E00ED
:100F200034C9011060C90110404B4C00ACC901101C
:100F3000200C002000ED00E0200C012040CB01102F
:100F40002C0C0120E8C90110F8C9011030CA0110A9
:100F50006766666648CA011064CA0110A4CA011017
:100F6000F4CA01101CCB011070C901108CC901100A
:100F7000C8CA011088CA01101C0C0020200C0120D6
:100F8000002950D02DE9F0410023054617460C46B4
:100F90004FF0004855F82320013390451BB2B8BFED
:100FA0009046A342F6DB0023A8F580261A464FF0B0
:100FB000010C55F82300013300F50051B0421BB27B
:100FC000A1EB060104DDC1F387310CFA01F10A44FB
:100FD000A342EEDBD317002001210CF013FEA8F58D
:100FE0007831002284460139904647F6FF7E08E0BA
:100FF0007345A8BF734627F81230013212B2A242DD
:101000000FDA55F822000B1A9B131133DBB286421C
:101010004CFA03F3ECDB27F81280013212B2A24241
:10102000EFDBBDE8F081704708B50346014804F0E6
:10103000A5FCFEE77CCB0110002002F0D9BA00BF6E
:10104000012002F0D5BA00BF10B5002001F0B0FDBC
:10105000012001F0ADFD402001F0AAFD104B02225D
:1010600018684FF4E13103F00FFE041E0CDB00F0B2
:10107000F3F858B900F090F8044660B9094B0A48F3
:101080004322DA6001F0EEFC204610BD0749084813
:101090006422FFF7C9FF054905486922FFF7C4FF2D
:1010A0000000002000440040400D030098CB0110D8
:1010B000D8CB011000BF704710B50446044801F0BA
:1010C000CFFA00B110BD2046BDE8104001F094BA3F
:1010D00000E001404FF0FF30704700BF4FF0FF309D
:1010E000704700BF4FF0FF30704700BF4FF0FF3038
:1010F000704700BFF8B5E0B9002A1746054615DD70
:101100000F4E0C4602E00135AF4210D0304603F0DE
:101110000FFEC1B22170304603F00CFE224614F8D7
:10112000013B0D2BEFD10A231370681CF8BD384624
:10113000F8BD04F041F8092303604FF0FF30F8BD1B
:1011400000200440F8B5431E012B1CD8002A174686
:1011500017DD551E0F4E4C1E0D4404E0304603F0C3
:10116000E9FDAC420DD014F8011F0A29F6D10D217A
:10117000304603F0DFFD2178304603F0DBFDAC4262
:10118000F1D13846F8BD04F017F8092303604FF099
:10119000FF30F8BD00200440F8B50D4B1F68A7B123
:1011A00000250C4C2E46D4E9000102F0EFF9204650
:1011B00002F0B8F80135002818BF6FF00706AF42FB
:1011C00004F10C04EFD13046F8BD3E463046F8BD80
:1011D00004CC0110E0CB01100B4B1B68834210B50F
:1011E00004460BD9094B04EB440403EB840253F887
:1011F00024005168BDE8104002F0E0B904490548F8
:101200002E22FFF711FFEDE704CC0110E0CB011017
:1012100024CC011050CC01100B4B1B68834210B53D
:1012200004460BD9094B04EB440403EB840253F846
:1012300024005168BDE8104002F0A8B904490548EF
:101240003922FFF7F1FEEDE704CC0110E0CB0110ED
:1012500024CC011050CC0110F8B5164B1F68FFB11B
:101260000024154D2646284602F05CF8013400287B
:1012700018BF6FF00706BC4205F10C05F3D10F4C07
:10128000206840B1002F14BF3A460122002104F02B
:1012900017FB3046F8BD384603F0B8FF2060F1E791
:1012A000064C26680EB13E46F3E7304603F0AEFF2B
:1012B0002060EEE708CC01100CCC0110340C0120AA
:1012C0000E4B1B68834210B5044611D90C4B04EB3E
:1012D000440203EB820153F82200496802F03CF912
:1012E000084B1B681B5D13B9B0FA80F0400910BDB4
:1012F000054906489022FFF797FEE7E708CC011062
:101300000CCC0110340C012060CC011094CC0110E5
:10131000474B1B78002B6FD12DE9F047454E3369C1
:1013200058072CD5444B454A93F800C0444B1468E9
:10133000D3F800E0434BBCF1010F0CBF0427032797
:101340000425326B196818686254196820442144D6
:101350004FEA122880F80180BCF1010F4FEA1240D9
:10136000887003D119682144120ECA701A683A4471
:10137000724502D21A683A441A60013DE1D12D4DFE
:101380002B69D80733D52C4B2C4A93F800C02C4B33
:1013900014681F682B4ABCF1010F0CBF4FF0040EFC
:1013A0004FF0030E08261CE02B6B2E61D2F8009044
:1013B0001068116804F80930204421444FEA132AC8
:1013C0004FEA1348BCF1010F80F801A081F80280B8
:1013D00003D1116821441B0ECB7013687344BB42C8
:1013E00022D32B691907DFD4174B01221A60114B46
:1013F0001A691A61BDE8F0870E4B1A69D1070FD53B
:101400001A69120705D508211A6B19611A691207A2
:10141000FAD40B4A0B4B12681A600B4B01221A606C
:10142000044B1A691A617047136873441360D8E754
:10143000980C012000E00040990C0120A40C012030
:10144000A00C0120A80C01209C0C0120284B1B683B
:101450005B0103F1804000F52030D0F804215207F1
:1014600028D5F0B40422234CC0F804212268224974
:101470000AB3224A09681568C0F80C11002D2DD056
:101480001F4A5168013151601E490D68216803F1FE
:10149000804303F5203381F001012160C3F810512E
:1014A000D0F80011136801310133F0BCC0F800110D
:1014B000136070477047134A0E68104915680F682B
:1014C00003F1804202F5203206EB050CC2F80CC194
:1014D00057B10B4A516801315160D7E7094D2D686A
:1014E00029441160064AD1E7054A0E60CEE700BFE5
:1014F000940C0120900C0120A40C0120B40C0120BC
:10150000AC0C01200C0000201A4A1B4B10681A6812
:101510004301F0B403F1804101F520310424C1F806
:101520000441164CC1F80C2194F800C0BCF1020F24
:101530000ED0134A1268C1F81021124A124BC1F89A
:1015400000311168012383400B43F0BC13607047E6
:101550000E4C0F4E24680F4F0F4DC1F8104122441E
:101560004FF0010C0024C7F800C0C1F80C21346012
:101570002C60E2E7940C0120A40C0120980C0120BF
:10158000A00C012000800240D10062830C000020EA
:10159000B40C0120900C0120AC0C012001F056BDD0
:1015A00070B5044686B00120FFF786FD002002F0EA
:1015B000C5FB3D4BA3FB04134FF496729B0902FB42
:1015C00003F30F3300221B094FF05531650001A8CA
:1015D000CDE90125ADF8123003918DF81020ADF85A
:1015E000142002F03FFC012002F07AFC2F4B012175
:1015F000D3E9000202F016F8012002F077FC00287F
:10160000FAD121462A4E2B4D02F05AFC012002F05D
:1016100067FCB368B36000F053FE284600F096FD07
:101620002B689847044600283BD16B699847AB6C00
:10163000044601209847EB6C02460120144398476A
:1016400004432ED1204601F045FC1B4B0121D3E978
:10165000000201F0E7FF194B0121D3E9000201F07C
:10166000E1FF174B0121D3E9000201F0DBFF154B2D
:101670000121D3E9000201F0D5FF204601F060FC12
:10168000204601F063FC042001F066FCB36843F0DF
:1016900000430120B36001F065FC0B495B2001F0C1
:1016A0001BFA204606B070BDD34D6210C4CD0110A8
:1016B00000E00040380C0120ACCD0110A0CD01109D
:1016C0007CCD0110B8CD0110111300102DE9F04FA1
:1016D000154683B0654A9DF83060137083460C460A
:1016E000002B59D0012B51D1614A9368042D23F06E
:1016F000804393604AD0DFF8A0A18AF80060062DED
:1017000014BF022301235B4FDFF89091DFF8908133
:10171000594A3868C9F8004004FB0BF103FB01F497
:10172000C8F800B0146028B1019303F077FD0022DF
:10173000019B3A60022E45D02046019403F066FDDD
:10174000019A3860002800F08780FF21013E04F0F4
:10175000B7F8012E5BD9494E0421336A112098470E
:10176000434A936823F4803304469360042001F0D5
:10177000F9FB736A28469847F36AD9F80010D8F83D
:1017800000009847204603B0BDE8F08F4FF0FF34CB
:10179000204603B0BDE8F08F354ADFF8FCA093681F
:1017A000042D43F0804393608AF80060A7D10220A3
:1017B00001F0C6FB9AF80060731E012B8CBF032357
:1017C0000423A0E72E4C0BFB03F02E4B20600022DD
:1017D00040005A6003F01AFD2B4938600D9801F063
:1017E00031FC0D9B032B3DD8DFE803F0272C3102A1
:1017F00026491F2001F070F9386868B39AF8006034
:10180000022E2CD12268FF21520004F059F8204BFF
:101810000D9A1A60FFF778FE154A184E936823F464
:10182000F01343F400339360936843F48033936080
:10183000042001F09DFB00249BE714491C2001F0CB
:101840004BF9D9E711491D2001F046F9D4E70F49BA
:101850001E2001F041F9CFE76FF0090498E7064B2D
:101860001A6872E70B4804F0F3F8FEE7990C0120C0
:1018700000E00040A40C0120A00C0120380C012045
:101880000C000020AC0C01204D1400109D15001020
:10189000940C0120A4CC0110980C0120040000201D
:1018A00008000020014B1B6A184700BF380C0120BC
:1018B00010B50A4B1B78013B012B0CD90849094A8A
:1018C000094B00240C6014601A691A61012001F0B0
:1018D00055FB204610BDFFF717FEEFE7980C0120DF
:1018E0009C0C0120A80C012000E00040024B18686D
:1018F000003818BF012070479C0C012070B4094CBF
:101900002669256935432561074C24680460074C26
:10191000074824680C600749006810600A681A606C
:1019200070BC704700E00040A40C0120A00C012016
:101930000800002004000020014B1868704700BF19
:10194000B40C0120014B00221A607047B40C012036
:1019500000487047AC0C0120024B3C221A6000206A
:10196000704700BFB80C0120014B1868704700BFDA
:10197000B80C0120024B1B7803700020704700BF99
:10198000100000200020704770B5164E82B004464B
:101990000DF1070230786F2100F0AAFC9DF80730A6
:1019A00023600DF1070205466E21307800F0A0FC9F
:1019B00003469DF8071030781D43236843EA01234E
:1019C0000DF1070223606D2100F092FC9DF80730B5
:1019D00022681B0403F4702313432843236002B0DE
:1019E00070BD00BFB80C012010B50A46054CFF239E
:1019F00001461370207800F07BFC003818BF0120EE
:101A0000404210BDB80C012070B50D4E82B00446A6
:101A10000DF1060230781C2100F06AFC0DF107027E
:101A200005461D21307800F063FC9DF806209DF8E6
:101A30000730284303EB0223236002B070BD00BFD0
:101A4000B80C012070B50D4E82B004460DF10602AF
:101A500030780A2100F04CFC0DF1070205460B21FD
:101A6000307800F045FC9DF806209DF807302843AB
:101A700003EB0223236002B070BD00BFB80C01204D
:101A8000F8B500B3214E3F223078812100F0BEFC32
:101A9000822205462821307800F0B8FC0022D221AD
:101AA0000543307800F0B2FC80220543DA2130781B
:101AB00000F0ACFC80220446DB21307800F0A6FC6C
:101AC0002C432043F8BD114F06463F223878812130
:101AD00000F09CFC022228210546387800F096FC94
:101AE0003246D2210543387800F090FC802205432D
:101AF000DA21387800F08AFC80220446DB2138782D
:101B000000F084FC2C432043F8BD00BFB80C01203A
:101B100070B50D4E82B00DF1070205460C213078EC
:101B200000F0E6FB9DF80720044655B142F0800224
:101B300030788DF807200C2100F068FC204302B0BB
:101B400070BD02F07F02F3E7B80C012070B50D4EB6
:101B500082B00DF1070205460C21307800F0C8FB79
:101B60009DF80720044655B142F0400230788DF8C8
:101B700007200C2100F04AFC204302B070BD02F0A7
:101B8000BF02F3E7B80C012070B50D4E82B00DF125
:101B9000070205468221307800F0AAFB9DF8072055
:101BA000044655B142F00C0230788DF807208221AE
:101BB00000F02CFC204302B070BD02F0F302F3E70A
:101BC000B80C012070B5264D82B00DF10702064613
:101BD0001421287800F08CFB9DF8072002F08F027A
:101BE00004468DF80720062E36D8DFE806F0252CAF
:101BF0002F32040F1A0042F0400228788DF8072097
:101C0000142100F003FC9DF80720044342F0500229
:101C100028788DF80720142100F0F8FB9DF80720A4
:101C2000044342F0600228788DF80720142100F068
:101C3000EDFB204302B070BD2878142100F0E6FBD4
:101C4000204302B070BD42F01002ECE742F02002E7
:101C5000E9E742F03002E6E74FF0FF30EAE700BF85
:101C6000B80C0120023010B504284AD8DFE800F093
:101C700015272F410300244CA8222078242100F0AE
:101C8000C5FBA0222078252100F0C0FB2078C422CB
:101C9000BDE81040262100F0B9BB1B4C7022207813
:101CA000242100F0B3FB60222078252100F0AEFB58
:101CB0002078A222BDE81040262100F0A7BB124CDC
:101CC00078222078242100F0A1FB7022ECE70E4C52
:101CD00086222078242100F099FB20787622252185
:101CE00000F094FB2078B322BDE81040262100F0DC
:101CF0008DBB054CA0222078242100F087FB982280
:101D0000C0E74FF0FF3010BDB80C0120023010B515
:101D1000042845D8DFE800F01A27343C0300224CA1
:101D200020222078D52100F071FB28222078D421B0
:101D300000F06CFB00222078D32100F067FB2078B4
:101D40000422BDE81040D22100F060BB164C2022D6
:101D5000D521207800F05AFB18222078D42100F0F9
:101D600055FB4822E7E7104C2022D521207800F0CF
:101D70004DFB1C222078D42100F048FB2022DAE71A
:101D8000094C20222078D52100F040FB2022CDE70D
:101D9000054C20222078D52100F038FB2422C5E70D
:101DA0004FF0FF3010BD00BFB80C012090422DE96C
:101DB000704F0646934688469A46C0F28280994202
:101DC0004FF0FF34A8BF0024DFF8FC90002299F800
:101DD0000000112100F01AFB7F220443512199F8E1
:101DE000000000F013FB99220443502199F80000F1
:101DF00000F00CFB23220443212199F8000000F09D
:101E000005FB00220443202199F8000000F0FEFAAF
:101E1000C6F307220443C82199F8000000F0F6FA3F
:101E2000F2B20443C92199F8000000F0EFFAC8F3B8
:101E300007220443CA2199F8000000F0E7FA5FFA8C
:101E400088F20443CB2199F8000000F0DFFACBF3CD
:101E500007220443CC2199F8000000F0D7FA5FFA7A
:101E60008BF20443CD2199F8000000F0CFFACAF3B9
:101E700007220443CE2199F8000000F0C7FA5FFA68
:101E80008AF244EA0005CF2199F8000000F0BEFA7A
:101E900010220921054399F8000000F0B7FA5522F5
:101EA0000543172199F8000000F0B0FAC222044659
:101EB000192199F8000000F0A9FA2C432043BDE84D
:101EC000708F4FF0FF347FE7B80C01202DE93047C9
:101ED0002E4A2F4B82B08842CDE9002304468A4621
:101EE00001D029284EDC0DF10409442C02DDBAF1A1
:101EF000440F01DC0AF1010ADFF89880C4F30722DD
:101F000098F80000CC2100F081FAE2B2CD2104461D
:101F100098F8000000F07AFACAF307220443CE21B1
:101F200098F8000000F072FA5FFA8AF20443CF21B9
:101F300098F8000000F06AFA99F8002044EA0005D9
:101F4000C82198F8000000F061FA99F801200543D3
:101F5000C92198F8000000F059FA99F802200543C9
:101F6000CA2198F8000000F051FA99F803200446BD
:101F7000CB2198F8000000F049FA2C43204302B02E
:101F8000BDE830872929AEDDE946AEE7028001E0F1
:101F900001E001E0B80C0120124A431E1070052B2D
:101FA0001CD8DFE803F0090F030309150E4B0622C6
:101FB0001878122100F02ABA0B4B0022187812214F
:101FC00000F024BA084B0E221878122100F01EBA35
:101FD000054B01221878122100F018BA4FF0FF309B
:101FE000704700BF10000020B80C012010B4044C52
:101FF00003460A4620785DF8044B194600F006BAFD
:10200000B80C012030B50D4D83B004460DF1070228
:1020100028780E2100F06CF950B99DF807204CB9D2
:1020200002F0F70228788DF807200E2100F0EEF973
:1020300003B030BD42F00802F4E700BFB80C012045
:1020400070B5164E82B030788022122100F0DEF991
:10205000FF2304468DF807300DF107021221307876
:1020600000F046F9034642F210701C4300F0FAFCFF
:102070009DF80730002BEFD1094D8022122100E09E
:102080006A78307800F0C2F915F8021FEE2944EAA8
:102090000004F5D1204602B070BD00BFB80C01208D
:1020A000D4CC01102DE9F04F93B000213C2203A8BD
:1020B0008DF8071002910F4603F002FCDFF88090C4
:1020C000DFF880A0DFF880B002AC4FF0210899F86B
:1020D0000000F9B20DF1070200F00AF9054680B1DF
:1020E00020237E1CA37016F00F0384F8008084F870
:1020F000018004F1030413D0B6F5807F1BD037466E
:10210000E5E79DF807302046524640217E1C03F04B
:10211000B9FC16F00F0304F103044FF00305EBD1F3
:10212000A7F10F0102AA5846237003F027FCB6F569
:10213000807F02ACE3D1284613B0BDE8F08F00BF2A
:10214000B80C0120CCCC0110C0CC0110184A194B9E
:10215000194910B4C0E90023184C194A194BC0E9B9
:102160000241C0E90423184C1849194A194BC0E927
:102170000641C0E90823184C1849194A194BC0E90F
:102180000A41C0E90C23184C1849194A194BC0E9F7
:102190000E41C0E91023184C1849194A194BC0E9DF
:1021A0001241C0E914235DF8044B0020704700BFC2
:1021B0005919001069190010091A0010451A001069
:1021C000A52000104120001005200010E919001082
:1021D000ED1F0010991F001075190010CD1E001082
:1021E000AD1D00100D1D0010651C0010851900109C
:1021F000C51B0010891B00104D1B0010111B001087
:10220000811A001089190010F8B5184D07460024EE
:102210004FF0804607FA04F313F0800F4FF00043AD
:1022200008BF4FF000432E624FF0040014BFEB6173
:102230002B6200F017FC0134EE61042000F012FC68
:10224000082CE7D14FF000442E6204206C6100F0AE
:1022500009FCEE61042000F005FC6F6A2E62042088
:1022600000F000FC2C61F80FF8BD00BF00800040BA
:10227000F8B5124E4FF000437361042000F0F2FBFA
:10228000082500244FF08047F761042000F0EAFBA6
:10229000736A37626400002BE4B2B8BF01344FF0B8
:1022A0000400B8BFE4B200F0DDFB6B1E13F0FF05C5
:1022B000EAD14FF0004333612046F8BD0080004072
:1022C00010B5084801F02EF80446074801F02AF836
:1022D000064B4FF000414FF08042D9612043DA6154
:1022E00010BD00BF34CD011040CD01100080004072
:1022F0002DE9F047444C4FF0004705464FF0804829
:10230000E76104208A46914600F0ACFBC4F81C80CB
:10231000042000F0A7FB6D002762042000F0A2FB60
:10232000EDB2C4F82080042000F09CFB2846FFF7A3
:102330006BFF80B106462762042000F093FBC4F8CF
:102340001C80042000F08EFBE761042000F08AFB73
:102350003046BDE8F0875046FFF756FF2762064635
:10236000042000F07FFBC4F81C80042000F07AFBFE
:10237000E761042000F076FB002EE9D1042000F094
:1023800071FBE761042000F06DFBC4F81C800420A1
:1023900000F068FB2762042000F064FBC4F8208092
:1023A000042000F05FFB681CC0B2FFF72DFF06465B
:1023B00098B1154C4FF000452562042000F052FB07
:1023C0004FF08043E361042000F04CFBE561042002
:1023D00000F048FB3046BDE8F087FFF749FF89F879
:1023E0000000E761042000F03DFBC4F81C800420DD
:1023F00000F038FBC4F82080042000F033FB276293
:10240000042000F02FFBD4E7008000402DE9F843C2
:10241000264D4FF0004904464FF08048C5F81C9007
:1024200004200F46164600F01DFBC5F81C80042052
:1024300000F018FBC5F82090042000F013FBC5F84D
:102440002080042000F00EFB600000F0FE00FFF78B
:10245000DBFE0446642000F005FBCCB1642000F0F4
:1024600001FB124D4FF00046642000F0FBFA2E6293
:10247000042000F0F7FA4FF08043EB61042000F0F5
:10248000F1FAEE61042000F0EDFA2046BDE8F88391
:102490003846FFF7B9FE0446642000F0E3FA002C4A
:1024A000DFD13046FFF7B0FE0446DAE70080004097
:1024B0001C4B1B689A6810B49A601A691A615A6AB0
:1024C00042F080025A625A6A1406FCD4DA6942F079
:1024D0008002DA61DA691206FCD45024DC6201223F
:1024E00002241A63D8621A621C631A6B9407FCD424
:1024F0005122DA629A68D006FCD5DC6A0C70102092
:10250000042298601A639A685206FCD540229A60A9
:102510009B685DF8044B13F4FE4F14BF6FF0080086
:1025200000207047BC0C0120164B1B689A689A600B
:102530001A691A615A6A42F080025A625A6A12068D
:10254000FCD4DA6942F08002DA61DA691206FCD45E
:102550005022DA621A6B42F001021A63D862D96221
:102560001A6B42F004021A639A685206FCD54022A4
:102570009A609B6813F4FE4F14BF6FF008000020B0
:10258000704700BFBC0C01201A4B1B689A6810B43E
:102590009A601A691A615A6A42F080025A625A6A4B
:1025A0001206FCD4DA6942F08002DA61DA691406B4
:1025B000FCD45022DA621A6B0F2442F001021A6333
:1025C0000144DC6210F8012BDA628842FAD11A6BFE
:1025D00042F004021A639A685206FCD540229A60BF
:1025E0009B685DF8044B13F4FE4F14BF6FF00800B6
:1025F00000207047BC0C0120184B1B6853B300B57A
:10260000031E83B018BF01231322022101A88DF8F5
:1026100004308DF80520FFF7B7FF10B103B05DF867
:1026200004FB42211720FFF77FFF0028F6D142F27A
:10263000107000F017FA01A91820FFF739FF0028E1
:10264000ECD19DF80430422B18BF6FF00A0003B0A4
:102650005DF804FB6FF00400704700BFBC0C012064
:1026600030B5174D2A6883B01AB10024204603B054
:1026700030BD0168286001F00303032BF5D0012170
:1026800001F0DAF804460028F0D10E49286801F07C
:102690001DF90121286801F025F90121286801F0C0
:1026A0001FF920460DF10701FFF702FF044600283D
:1026B000DCD19DF80730022BD7D06FF01004D5E79E
:1026C000BC0C0120A086010047488546474880474A
:1026D00080B94749474A484B9B1A03DD043BC85819
:1026E000D050FBDC4549464A00209142BCBF41F82E
:1026F000040BFAE7434880474348804743488047F4
:10270000FFF7FEFFFEE7FEE7FEE7FEE7FEE7FEE778
:10271000FEE7FEE7FEE7FEE7FEE7FEE7FEE7FEE791
:10272000FEE7FEE7FEE7FEE7FEE7FEE7FEE7FEE781
:10273000FEE7FEE7FEE7FEE7FEE7FEE7FEE7FEE771
:10274000FEE7FEE7FEE7FEE7FEE7FEE7FEE7FEE761
:10275000FEE7FEE7FEE7FEE7FEE7FEE7FEE7FEE751
:10276000FEE7FEE7FEE7FEE7FEE7FEE7FEE7FEE741
:10277000FEE7FEE7FEE7FEE7FEE7FEE7FEE7FEE731
:10278000FEE7FEE7FEE7FEE7FEE7FEE7FEE7FEE721
:10279000FEE7FEE7FEE7FEE7FEE7FEE7FEE7FEE711
:1027A000FEE7FEE7FEE7FEE7FEE7FEE7FEE7FEE701
:1027B000FEE7FEE7FEE7FEE7FEE7FEE7FEE7FEE7F1
:1027C000FEE7FEE7FEE7FEE7FEE7FEE7FEE7FEE7E1
:1027D000FEE7FEE7FEE7FEE7FEE7FEE7FEE7FEE7D1
:1027E000FEE7FEE7FEE7FEE700000220C528001036
:1027F00088D5011000000020340A0020000C0020C1
:1028000010160120CD280010C5510010FD0C00103D
:102810000B4A08B50346106828B10A4903448B42A5
:1028200007D8136008BD08480649106003448B426E
:10283000F7D902F0C1FC0C2303604FF0FF3008BD54
:10284000C00C012000F00120181601206FF01000CC
:10285000704700BF6FF01000704700BF4FF080431B
:102860009A6802F46062B2F5206F20D010D8CAB125
:10287000104B47F23051B2F5C06F08BF0B464FF016
:1028800080420D499268C2F38212D3400B607047B8
:10289000B2F5406F08D0074B0849B2F5606F08BF2A
:1028A0000B46ECE7064BEAE74FF40043E7E74FF44B
:1028B000E103E4E700E1F50510160120C0687804A3
:1028C0000087930300207047704700BF10B50B4C82
:1028D0000B4BA3600B4801F017FAD4F8883043F48F
:1028E0007003C4F88830BFF34F8FBFF36F8FFFF7CB
:1028F000B5FFFFF7E9FFFEF7A7FB10BD00ED00E015
:102900000000001000A0024038B54FF0E023184945
:102910009C691A6922F480320A601A69D20723D4AA
:102920006FF07F4405225C614FF080759C611A61F5
:10293000104B114A19680023A0FB01010BF0B2F9FA
:102940000E4BB0FBF5F205FB120084421A6007D86B
:102950001A6801321A602C44094B201A186038BDDD
:10296000074B201A186038BD5D690135E0E700BFEC
:10297000C80C01201016012040420F001400002056
:10298000CC0C012010B50C4C0C4B22681960002AAD
:102990000FDC08B9002010BDFFF7B6FF2368002B3D
:1029A000F8DD4FF0E0220020136943F002031361C9
:1029B00010BD6FF0050010BD14000020C40C0120F4
:1029C000F8B5174C2368002B1EDB26682EBB154B71
:1029D0004FF0E0251B68AA699A421ED8124F3B6847
:1029E0005BB16FF00F009847104B3E601A682A6188
:1029F0004FF0FF3323600020F8BD0C4A4FF0FF3347
:102A000012682A612360F6E7074C2368002BF2D096
:102A10000020984700202060F8BD6FF00500F8BD49
:102A200014000020CC0C0120C40C0120C80C012093
:102A300010B5094C236823B16FF00F0098470023AD
:102A40002360064A064B10684FF0E0214FF0FF323A
:102A500008611A6010BD00BFC40C0120C80C012021
:102A60001400002038B5184C2268002A29DC00B96F
:102A700038BDFFF749FF4FF0E02202E01369DB03A6
:102A80001BD42368002BF9DC104B1A684FF0E021AF
:102A90008B699342FCD80E4D2B6823B16FF00F0069
:102AA000984700232B600B4B4FF0E022196811610F
:102AB0004FF0FF330020236038BD2368013B2360C3
:102AC000DFE76FF0050038BD14000020CC0C0120BA
:102AD000C40C0120C80C0120F8B50F4E0F4BB26892
:102AE0009A4204460D4600F1100707D018460C49DB
:102AF0004FF4F07202F04AFE0346B060002C43F837
:102B0000275008DB074B6209012004F01F0400FA7C
:102B100004F443F82240F8BD00ED00E0000E01206F
:102B20000000001000E100E03F2819D81F280CD950
:102B30004FF0804320389A6C0123C0B203FA00F0B2
:102B400010420CBF1846002070474FF0804201230E
:102B5000526A03FA00F010420CBF1846002070477A
:102B6000014B4038DA68E7E7000008403F2809D900
:102B70000E4A4038D168C0B2012303FA00F008437E
:102B8000D06070471F284FF0804208D92038916CE0
:102B9000C0B2012303FA00F0084390647047516A01
:102BA000012303FA00F00843506270470000084018
:102BB0003F280AD910494038CB68C0B2012202FA36
:102BC00000F023EA0000C86070471F284FF08041E2
:102BD00009D920388B6CC0B2012202FA00F023EA36
:102BE0000000886470474B6A012202FA00F023EA71
:102BF00000004862704700BF0000084010B5072879
:102C00000AD8DFE800F00C09092333475B04BDE86C
:102C10001040364800F086BB6FF0020010BD4FF048
:102C200080440021A36843F48023A3604FF47A70AA
:102C3000FFF7A8FE03E0FFF7C3FE063052D1A368FA
:102C40005901F8D5FFF7F4FE002010BD00214FF424
:102C50007A70FFF797FE4FF0804403E0FFF7B0FE75
:102C600006303FD1A3689A00ECD4F7E74FF08044D8
:102C70000021A36843F40023A3604FF47A70FFF7A8
:102C800081FE03E0FFF79CFE06302BD1A3681B01F9
:102C9000F8D5D7E74FF080440021A36843F48013B0
:102CA000A3604FF47A70FFF76DFE03E0FFF788FE34
:102CB000063017D1A368D800C4D4F7E74FF080449A
:102CC0000021A36843F40033A3604FF47A70FFF748
:102CD00059FE03E0FFF774FE063003D1A3689B01A1
:102CE000B0D4F7E76FF0090010BD00BF4CCD011064
:102CF00038B54FF080439D68072824D8DFE800F0FE
:102D0000262323333C4B5A045D4800F00BFBC8B923
:102D10004FF08042936843F46063936000214FF466
:102D20007A70FFF72FFE4FF0804403E0FFF748FE74
:102D300006304ED1A3689B04F8D5FFF779FEFFF764
:102D40008DFD002038BD6FF0020038BD4FF080448B
:102D5000A16811F4802146D04FF08042936823F49B
:102D600060639360DAE74FF08042936823F4606316
:102D700043F4C0639360D1E74FF08044A16811F43D
:102D8000002169D04FF08042936823F4606343F4DC
:102D900000639360C2E74FF08044A16811F4801192
:102DA00047D04FF08042936823F4606343F420637C
:102DB0009360B3E74FF08044A16811F4003125D04F
:102DC0004FF08042936823F4606343F44063936060
:102DD000A4E7A36805F4606523F460632B43A36054
:102DE0006FF0090038BDA36843F48023A3604FF45B
:102DF0007A70FFF7C7FD03E0FFF7E2FD0630EFD181
:102E0000A3685801F8D5FFF713FEA5E7A36843F4BC
:102E10000033A3604FF47A70FFF7B4FD03E0FFF7CF
:102E2000CFFD0630DCD1A3689A01F8D5FFF700FE8C
:102E3000C6E7A36843F48013A3604FF47A70FFF7EA
:102E4000A1FD03E0FFF7BCFD0630C9D1A368D9009E
:102E5000F8D5FFF7EDFDA4E7A36843F40023A360D2
:102E60004FF47A70FFF78EFD03E0FFF7A9FD0630FF
:102E7000B6D1A3681B01F8D5FFF7DAFD82E700BFE2
:102E80004CCD01103F280AD94038114AC0B2012365
:102E900003FA00F0906093681842FCD170471F2835
:102EA0000BD92038C0B201234FF0804203FA00F062
:102EB0005064536C1842FCD1704701234FF080429C
:102EC00003FA00F0506053681842FCD1704700BF0D
:102ED00000000840022823D810B504463220FFF72E
:102EE00067FE012C104815D0022C0CD000F01AFA05
:102EF0000E4800F017FA0E4800F014FA0D4800F0E2
:102F000011FA002010BD00F00DFA0B4800F00AFA8B
:102F10000A48EBE700F006FA074800F003FAE7E793
:102F20006FF00200704700BF7CCD0110ACCD0110E6
:102F3000A0CD0110B8CD011088CD011094CD0110A5
:102F40000146014800F020B800E000400146014879
:102F500000F024B800E000400146014800F028B825
:102F600000E000400146014800F02EB800E00040BB
:102F70000146014800F02EB800E00040014601483B
:102F800000F030B800E00040826822F00C0282605D
:102F9000836843EA81018160704700BF826822F044
:102FA00010028260836843EA01118160704700BFAC
:102FB000836823F4787383608368490101F478712E
:102FC00019438160704700BFC36801F00F011943C6
:102FD000C1607047C36801F00F0123EA0103C360B9
:102FE000704700BF836823F003038360836801F0A8
:102FF000030119438160704710B50520FFF794FD68
:1030000020B1BDE81040074800F026B8044605206E
:10301000FFF7CEFD2046FFF735FFBDE81040014821
:1030200000F01AB800800240014800F06BB800BF01
:1030300000800240014800F083B800BF00800240D9
:1030400000F0C2B800F0E4B800F0F4B8014800F0B5
:1030500007B900BF008002402DE9F843234B984296
:10306000064639D0224923484022FDF7DDFF4FF0C4
:10307000FF39DFF88C8058F8293083BB1E4801F0F7
:10308000F7FF1D48012101F0E5FF074650BB1B4B30
:10309000306006F580740246014606EB421CC3E927
:1030A0000224C3E900110132CCF800111433DCF81A
:1030B0000451CCF80451102A43F8041C04F12004F4
:1030C000EBD158F829300C48013348F8293001F089
:1030D000CFFF3846BDE8F8834FF00009C9E76FF02D
:1030E0000607F6E76FF00507F3E700BF0080024030
:1030F0009CCE0110E0CE0110E40F0120E80F01206A
:10310000E00F012008B50A4B98420BD009490A4844
:103110007222FDF789FF094B4FF0FF31002243F87F
:10312000212008BD054B0021002243F8212008BDC5
:10313000008002409CCE0110E0CE0110E00F012083
:1031400038B51B4B984220D07D221A491A48FDF70A
:103150006BFF4FF0FF32194B53F8223013B318486E
:10316000012101F077FF0446F8B91649034651F8EA
:10317000232005335AB10134102CF8D16FF00D041F
:103180000F4801F075FF204638BD0022E3E704EB4D
:10319000840001EB80030125DB6841F820501A60B0
:1031A000DA61EDE76FF00604EDE76FF00504EAE79A
:1031B000008002409CCE0110E0CE0110E00F012003
:1031C000E40F0120E80F01200F2870B516D800EB9E
:1031D00080000D4E8400335983B10C48012101F069
:1031E00039FF054668B933193051DB6807481D605F
:1031F0005A685A6001F03CFF284670BD6FF0020526
:10320000FAE76FF00505F7E7E80F0120E40F01206A
:103210000F2809D800EB8000054B80001A581AB11E
:1032200003440020196170476FF00200704700BF2F
:10323000E80F01200F280ED800EB8000074B80001C
:103240001A5842B1184401F05F01C3685A6811432B
:103250000020596070476FF002007047E80F0120AE
:103260001C4B98422DE9F04107462DD01A491B48C6
:1032700040F2A912FDF7D8FE00266FF00F04184D9A
:1032800004EB840305EB83054FF001080F2C14D8E1
:103290002B6808FA04F283B17B681A420DD02B69BF
:1032A0002046002113B198472B6883B1EB68596819
:1032B0002046FFF7C9FE7B6823B10134B44205F113
:1032C0001405E3DBBDE8F08110260024D7E76FF09A
:1032D0000201EDE7008002409CCE0110E0CE01101B
:1032E000E80F0120C10710B5044608D4A2070BD48B
:1032F00063070ED42046BDE8104001F0BFBE002099
:10330000FFF756FCA207F3D50120FFF751FC630736
:10331000F0D54020FFF74CFC2046BDE8104001F0FE
:10332000ADBE00BFF8B5894B05689D42044638D054
:1033300003F580539D4212D003F5EE2303F580631D
:103340009D423CD003F500739D423AD00020FFF728
:10335000C9FF01F0E9FE012808D10020F8BD0220D4
:10336000FFF7C0FF01F0E0FE0128F6D06268A17A05
:10337000284600F077F90028F0D1754B22689A4270
:1033800011D06268217A284600F08CF90028E5D136
:10339000637A042B00F2D680DFE803F0554D3D350B
:1033A0001E000120D3E7237A012B00F0BD80022B01
:1033B00054D0002B00F0A0806FF01000F8BD042066
:1033C000C5E70820FFF78EFF01F0AEFE0128C4D04C
:1033D000A37A002BD1D1EFE72A6E636822EA0302B9
:1033E0002A666A6E1A436A66D5F8B8201343C5F890
:1033F000B830237A002BB0D06268E17A2846BDE865
:10340000F84000F08DB92A6E63681A432A666A6E26
:1034100022EA0302E7E72B6E626823EA02032B66C7
:103420006B6E13436B66D5F8B83023EA0203C5F818
:10343000B830237ADEE72B6E626813432B666B6E1F
:1034400023EA0203EEE72A6E616822EA01022A6695
:103450006B6E23EA01036B66237ACBE762683D4813
:103460004FEA420C1101066A0CF0020C01F0200137
:1034700041EA0C01314301628168C2F3400242EA31
:103480000C020A438260627A042A95D8DFE802F0CF
:10349000271C031C030062682E48D100066A01F055
:1034A000100102F0010C41EA0C0126EA010101625F
:1034B0009100520101F0040102F040020A43016A46
:1034C00021EA0202026295E722486268076AD10097
:1034D00002F0010601F010013E433143E7E7616865
:1034E0001C488A004901066A02F0040201F040010A
:1034F0000A43324302627DE7626816484FEA420C93
:103500001101066A0CF0020C01F0200141EA0C01E5
:1035100026EA010101628168C2F3400242EA0C021C
:1035200021EA02028260AEE762680A484FEA420C72
:103530001101066A0CF0020C01F0200141EA0C01B5
:103540003143E7E76FF00200F8BD00BF00800040A4
:1035500000060840006C00400A4A90420B4601D029
:1035600000F074B8084A106A116A01EA831100EA8F
:10357000C3000B06C0F3C00002D540F00200704744
:10358000704700BF00060840006C0040094A9042A6
:1035900001D000F05FB8084810B4046ACA0001F016
:1035A0000101214302F0100319435DF8044B01624D
:1035B000704700BF00060840006C00400A4A904275
:1035C00001D000F049B810B4084C0B46C900206A7D
:1035D00001F0100203F00101114320EA0101216210
:1035E0005DF8044B704700BF00060840006C0040C7
:1035F00001F056BD034A904201D000F02FB8024AB4
:10360000D16170470006084000680040034B9842B3
:1036100001D000F025B8024BD86970470006084079
:103620000068004010B4074CA04203D05DF8044B82
:1036300000F018B800290CBF6FF0100000205DF8F2
:10364000044B70470006084001F06EBD406A084018
:10365000704700BFC1617047016270478164704765
:10366000006C704770B505460C461646FFF7ECFF38
:10367000012814D05CB1012C02D06FF0020070BDA3
:10368000D5F8C02032430020C5F8C02070BDD5F861
:10369000C02022EA06022046C5F8C02070BD0020E6
:1036A00070BD00BF70B504460E461546FFF7CCFF4F
:1036B00001280AD0236B2B4323636560052E2CD889
:1036C000DFE806F00C14161D2405002070BDC4F8B8
:1036D00088500020A567E566A56070BD65616560DE
:1036E00000202567E567C4F8885070BD2561F6E7BE
:1036F000C4F888500020E5672567A56070BDC4F850
:1037000088500020E567E566A56070BDC4F8885064
:103710000020A5672567A56070BD6FF0020070BD31
:1037200070B504460D461646FFF78EFF012810D0EF
:10373000032D37D8DFE805F01B02290FD4F8B0308D
:103740003343C4F8B030D4F8B42022EA0606C4F8F3
:10375000B460002070BDD4F8B0303343C4F8B0304A
:10376000D4F8B4201643C4F8B460002070BDD4F877
:10377000B03023EA0603C4F8B030D4F8B42022EA0B
:103780000606C4F8B460002070BDD4F8B03023EA57
:103790000603C4F8B030D4F8B4201643C4F8B460BB
:1037A000002070BDD4F8B03023EA0603C4F8B0306E
:1037B000D4F8B43023EA0606C4F8B460C9E700BF01
:1037C0000AB900F013B96FF010007047174B984218
:1037D00010B5044610D0164B984218D0154B98429D
:1037E00020D13820FFF7C2F93420FFF74BFB2046E9
:1037F000BDE8104000F018B90D20FFF7B7F9102010
:10380000FFF740FB2046BDE8104000F00DB91C203A
:10381000FFF7ACF92020FFF735FB2046BDE810404C
:1038200000F002B96FF0010010BD00BF00D00140F0
:1038300000E0014000F00140C0B370B504460D4601
:103840001646FFF7C3FF1B4B9C4212D01A4B9C42FB
:103850001CD01A4B9C4226D13820FFF7A9F91848F2
:10386000FFF760FD324629462046BDE8704000F073
:103870003BB80D20FFF79CF91248FFF753FD324685
:1038800029462046BDE8704000F02EB81C20FFF706
:103890008FF90D48FFF746FD324629462046BDE820
:1038A000704000F021B86FF0010070BD4FF0FF30A4
:1038B000704700BF00D0014000E0014000F001402F
:1038C00070CD011058CD011064CD011000F002B987
:1038D00000F060B900F07AB900F080B900F086B964
:1038E00000F0F0B900F0FEB92DE9F041002871D0E8
:1038F0003A4B984288461646044649D003F5805311
:10390000984243D0364FB8420CBF02274FF0FF37E2
:1039100010212046FFF7E2FF0546002833D1236837
:1039200043F0010323602046FFF7D4FF2046FFF752
:10393000D3FF02212046FFF7D5FF06212046FFF7DF
:10394000CFFFB8F1000F27D02368244A43F00203C9
:103950009442236039D0234B9C421BD020488442A0
:103960000CBF02244FF0FF341F4B03EB4414012221
:10397000626003EB47136FF00101C3E902110022FB
:103980001A611A765A612846BDE8F0810127BFE71F
:103990000027BDE70124E7E7314642462046FFF70E
:1039A0000FFF0E4B9C420AD003F580539C420ED071
:1039B0000B498C420CBF4FF002084FF0FF380A4B06
:1039C00003EB481100224A60D3E72C46CCE74FF0C6
:1039D0000108F4E74FF0FF35D5E700BF00D0014004
:1039E00000F0014000E0014028110120C0B1032A8D
:1039F00010D8B1F5806F10D200EB820200237F292E
:103A0000D36484BF4FF40043D364D36C19430020C4
:103A1000D16470476FF0100070476FF0020070477C
:103A20004FF0FF30704700BF00284AD0F8B5264B52
:103A30009842044639D003F58053984223D0234D51
:103A4000A8420CBF02254FF0FF3500212160E16044
:103A50006161A3681E4EA360236923616F0106EBB9
:103A60004515E1612022216228466162A16201F0D0
:103A700027FF2046FFF72EFF2046FFF72DFF2B7E66
:103A80001BB90020F8BD0125DFE7FFF7CDFAA868D4
:103A900000280CDA3E44F0680028F2DBFFF7D0FA89
:103AA0006FF00103F3600020F8BD0025CDE73E4430
:103AB000FFF7C6FAF0686FF001030028AB60E0DBA7
:103AC000ECE74FF0FF30704700D0014000F00140BC
:103AD0002811012000284FD010B4294AA1F57423E1
:103AE0006FF41074234493421AD3264B99423ED864
:103AF000254B1B685B08B3FBF1F14A0811F0010F7D
:103B000002F1FF3408BF2246B2F5007F2FD274B312
:103B1000C4F3080444635DF8044B8263FFF7D8BE26
:103B2000194B1A4A1B685B08B3FBF1F14FEA410CD1
:103B3000A2FB0C4CA2FB01425208C90758BF02F17C
:103B4000FF324FEA5C0C0F2A0CF1FF3C0FDCBCF19A
:103B50000F0F0CDC12025FFA8CFC92B24CEA0202EC
:103B6000C26302680A4942F400420260C3E76FF090
:103B700002005DF8044B70474FF0FF30704700BF04
:103B8000009F240040E1330010160120ABAAAAAA2E
:103B9000801A060003681B040CD5C26BC36BD0B23D
:103BA0000230C3F307230344074A10684008B0FB00
:103BB000F3F07047436B806BC3F30803C0F3080056
:103BC00003440233F0E700BF10160120C36943F03D
:103BD0008003C361C3691B06FCD47047436A43F08A
:103BE00080034362436A1B06FCD47047002865D0FB
:103BF000036843F001032DE9F0410360076803689F
:103C000043F480630E46044607F48067036000298E
:103C100043D000252BE0FEF725FF236823F0800327
:103C200023600A20FEF71EFF236813F400784FF08C
:103C30000A002BD1FEF716FF236843F080032360B0
:103C40000A20FEF70FFF23689A054FF00A001DD5E2
:103C5000FEF708FF236843F0400323600A20FEF7C5
:103C600001FF2368DB0525D40135AE4215D00A20BB
:103C7000FEF7F8FE236823F0400323600A20FEF7D6
:103C8000F1FE2368D9054FF00A00C4D52368013539
:103C900043F0C003AE422360E9D16FF008001FB9C2
:103CA000236823F480632360236823F001032360E7
:103CB000BDE8F0814046002FF6D1F1E74FF0FF302C
:103CC000704700BF8269D2B28A42034607D3C269F5
:103CD00022F4706242EA01210020D96170476FF03E
:103CE000020070478269C2F307228A42034607D363
:103CF000426A22F4706242EA012100205962704750
:103D00006FF00200704700BF00F000B8D0F800313B
:103D1000012223F00103C0F80031C0F80027D0F8D9
:103D20000031DA03FBD5D0F8003143F00103C0F8CD
:103D30000031D0F80031DB03FBD57047802810B587
:103D4000044613D81D20FEF733FF2120FFF79AF811
:103D50004FF08042936823F4E0739360072C16D8E9
:103D6000DFE804F027313D4955616D1B1E223A49B9
:103D70003A48FDF759F91D20FEF71AFF2120FFF7F9
:103D800081F84FF08042936823F4E07393602146FA
:103D90003348BDE8104000F0AFB84FF080422146F4
:103DA00093682F4843F4E073BDE81040936000F03F
:103DB000A3B84FF0804321469A6829489A60BDE82D
:103DC000104000F099B84FF0804221469368244893
:103DD00043F04003BDE81040936000F08DB84FF011
:103DE0008042214693681E4843F08003BDE810409E
:103DF000936000F081B84FF08042214693681848E4
:103E000043F0C003BDE81040936000F075B84FF078
:103E1000804221469368124843F48073BDE8104005
:103E2000936000F069B84FF08042214693680C48D7
:103E300043F4A073BDE81040936000F05DB84FF00C
:103E4000804221469368064843F4C073BDE81040A1
:103E5000936000F051B800BFF0CE011034CF0110D4
:103E600000C0034010B504462146104800F04CF84D
:103E70002368032B17D8DFE803F00C1107020C4866
:103E8000FFF750FA002010BD0A48FFF74BFA002058
:103E900010BD0948FFF746FA002010BD0748FFF79C
:103EA00041FA002010BD6FF0020010BD00C00340B9
:103EB000E8CD0110DCCD0110C4CD0110D0CD011032
:103EC00000B587B002460B46044801A900F07EF811
:103ED00001A8FFF7C7FF07B05DF804FB00C003406F
:103EE0000146014800F07EB800C003400146014889
:103EF00000F080B800C00340002303608368836043
:103F000083698361704700BF00294AD038B54B6888
:103F10000C46002B3CD0244A1268012A4FEA520575
:103F20003CD9AB4237D8B5FBF3F50A6801684FF0CE
:103F3000010C0CFA02FC21EA0C0101601B498B42C6
:103F400088BF02353AB1012A1ED0022A1ED0032AA8
:103F500013D1174A00E0174A208A174B217B03EA46
:103F60000043E08925F0784545EAC1650343A1682F
:103F7000156000205160936038BD48220F491048F9
:103F8000FDF752F80022E7E70E4AE5E70E4AE3E7BD
:103F90006FF0020038BD6FF0060038BD6FF004000E
:103FA00038BD6FF0020070471016012040420F002C
:103FB00080C0034020C003400000FF0F48CF011025
:103FC0008CCF011040C0034060C0034000205B0064
:103FD0004FF0010CC1E90023886081F80CC0C88152
:103FE0000882704703680B430360036831EA0303E8
:103FF000FBD1704703680B4214BF012000207047BB
:10400000F0B5B24B984283B004460D46164631D007
:1040100003F5805398421FD0AD4B984200F0E380E7
:1040200003F58053984200F0E28003F5DB2303F5AB
:104030008063984200F09E8003F58063984200F010
:10404000DA80002900F00F81A249A3482422FCF75E
:10405000EBFF4FF0FF3703E0002900F00481012758
:10406000EB78023B042B00F22981DFE803F00C24FB
:104070001A080800002900F0F6800027F0E76FF02A
:10408000100003B0F0BD0020FEF7B8FD93492046B4
:1040900000F0A4F90122032F29D8DFE807F04357E5
:1040A0002F160620FEF7AAFD4FF40041204600F02F
:1040B00095F90322EFE70520FEF7A0FD4FF4E1019B
:1040C000204600F08BF90222E5E708200192FEF776
:1040D000D9FE1220FEF76CFD019A46B1AB78022B97
:1040E00012BF7F487F480192FFF71CF9019A2946C9
:1040F000204603B0BDE8F04000F056BA0720019218
:10410000FEF7C0FE1120FEF753FD019A002EEED0FF
:10411000AB78022B12BF744874480192FFF702F982
:10412000019AE4E705200192FEF7ACFE0F20FEF7AE
:104130003FFD019A002EDAD0AB78022B12BF6C48FB
:104140006C480192FFF7EEF8019AD0E70620019241
:10415000FEF798FE1020FEF72BFD019A002EC6D028
:10416000AB78022B12BF644864480192FFF7DAF87B
:10417000019ABCE7002976D0CB78023B042B00F2F1
:10418000938001A252F823F07F400010D341001029
:10419000534200109D4100107F4000100320FEF7A5
:1041A0002DFD574847F2305100F018F902225548CA
:1041B0000192FFF7B7F84220FEF764FE4220FEF7B7
:1041C000F7FC019A2946204603B0BDE8F04000F014
:1041D000EBB90520FEF712FD49484FF4E10100F06C
:1041E000FDF80022E3E700293DD0022738E7002947
:1041F00039D0032734E7002935D0CB78023B042B94
:1042000048D801A252F823F07F40001081420010EC
:104210007F4000106D4200101D4200100520FEF787
:10422000EDFC39484FF4612100F0D8F801223748FD
:104230000192FFF777F84320FEF724FE4320FEF7B4
:10424000B7FC019A2946204603B0BDE8F04000F0D3
:10425000ABB90620FEF7D2FC29484FF4004100F02C
:10426000BDF80122A3E74FF0FF300AE70320FEF775
:10427000C5FC254847F2305100F0B0F80222D6E7DD
:104280000520FEF7BBFC20484FF4E10100F0A6F842
:104290000022CCE71E4B1C481968002249080192F5
:1042A00000F09CF8019AC2E7194B154819680022E2
:1042B0004908019200F092F8019A78E7144B1968C6
:1042C0002046490800F08AF80022E4E60000014098
:1042D000002001409CCF0110E0CF01100087930324
:1042E0003CCE011048CE011024CE011030CE01107A
:1042F000F4CD011000CE01100CCE011018CE01102B
:10430000000C084054CE01100010084060CE01108F
:104310001016012000F0F4B900F02EBA00F058BADF
:1043200000F082BA00F0AEBA00F004BF00F01ABF8D
:1043300000F00ABF00F00CBF00F016BB10B4244C14
:10434000A0422ED0234B984216D003F580539842BA
:1043500037D003F58053984236D003F5DB2303F5BD
:10436000806398422AD004F5E224A0420CBF4FF0AB
:10437000050C4FF0FF3C01E04FF0010C164C14F817
:104380000C405CB901290FD9022907D181691304B6
:1043900003F4403321F44032134383615DF8044B4E
:1043A00070474FF0000CE9E7846902F0030324F042
:1043B0000304234383610029E8D0EFE74FF0040CA6
:1043C000DCE74FF0020CD9E74FF0030CD6E700BF53
:1043D0000000014000100140881101201C4B984250
:1043E00010B50C4629D003F58053984219D003F537
:1043F0008053984225D003F58053984223D003F58B
:10440000DB2303F58063984219D003F5806398425B
:104410001BD010491048B722FCF706FE4FF0FF33BF
:1044200000E001230D4AD25C32B90D4A012002EBB3
:10443000C30102F833004C6010BD0023F2E70423EF
:10444000F0E70223EEE70323ECE70523EAE700BFEA
:1044500000000140ECCF0110E0CF011088110120D5
:104460009011012008B51B4B984226D003F58053CC
:10447000984219D003F58053984222D003F5805317
:10448000984220D003F5DB2303F58063984216D0D1
:1044900003F58063984218D0C6220F490F48FCF7F5
:1044A000C3FD4FF0FF3200E001220D4B13F8321034
:1044B00069B103EBC203586808BD0022F5E7042286
:1044C000F3E70222F1E70322EFE70522EDE76FF0C1
:1044D000060008BD00000140ECCF0110E0CF011044
:1044E000901101202D4B984270B504460D461AD00C
:1044F00003F58053984216D003F58053984212D0AA
:1045000003F5805398420ED003F5DB2303F5806357
:10451000984208D003F58063984204D0204921488E
:10452000D422FCF781FD002D37D0AB78022B236914
:104530000CBF4FF080414FF4804143EA01030BBFB1
:104540006FF0005C6FF4005C4FF080724FF480728B
:104550000CBF4FF48036012623610BBF4FF40020BF
:10456000082010210021A3690342FCD06B78206948
:104570008B4003432361AB6820691B028B400343DC
:1045800023612660E3681342FCD06B6803FA01F1F3
:104590006160A36903EA0C03A36170BD00000140E0
:1045A000ECCF0110E0CF0110524B984270B5044699
:1045B0000D4616461AD003F58053984216D003F5DF
:1045C0008053984212D003F5805398420ED003F5E1
:1045D000DB2303F58063984208D003F5806398429B
:1045E00004D0454945483122FCF71EFD002D7ED000
:1045F000A978A3698A0714BF23F0004343F000435E
:10460000A361E36843F001133246E3602046FFF7FD
:1046100095FEAA782B78012A25D9022A11D1226980
:104620001B0403F4700322F47002134323616B78BC
:10463000082B16D8DFE803F01111585858115858B4
:1046400058006B78082B0CD8DFE803F00707070742
:10465000050705050500022A46D029462046FFF732
:1046600041FF002070BD216903F0F00021F0F0014E
:104670000143216102BB21691B0403F4700321F48F
:1046800070010B4323616B78082BEAD801A151F824
:1046900023F000BF5B4600105B4600105B46001035
:1046A0005B4600105B4600105B4600105B46001046
:1046B00057460010574600106B78082BD1D801A13F
:1046C00051F823F05B4600105B4600105B4600107B
:1046D00057460010574600105B4600105746001022
:1046E000574600105B4600106FF0100070BD4FF091
:1046F000FF3070BD00000140ECCF0110E0CF011091
:104700001A4B984210B504461BD003F580539842CB
:1047100017D003F58053984213D003F58053984285
:104720000FD003F5DB2303F58063984209D003F52E
:104730008063984205D00E490E484FF48272FCF710
:1047400073FC2369580406D5236943F400432361AD
:10475000A3695907FCD523695A0006D5236943F09C
:1047600000432361A3695B03FCD510BD0000014039
:10477000ECCF0110E0CF0110124B984210B5044667
:104780001BD003F58053984217D003F5805398420D
:1047900013D003F5805398420FD003F5DB2303F5C4
:1047A0008063984209D003F58063984205D006499A
:1047B00006484FF48D72FCF737FC236923F0802301
:1047C000236110BD00000140ECCF0110E0CF0110CB
:1047D000124B984210B504461BD003F58053984203
:1047E00017D003F58053984213D003F580539842B5
:1047F0000FD003F5DB2303F58063984209D003F55E
:104800008063984205D0064906484FF4BC72FCF715
:104810000BFCE36843F00113E36010BD00000140AE
:10482000ECCF0110E0CF011038B5134B984204468D
:104830000D461BD003F58053984217D003F58053E3
:10484000984213D003F5805398420FD003F5DB2331
:1048500003F58063984209D003F58063984205D040
:104860000649074840F2C112FCF7DEFB2560E36809
:10487000DB05FCD538BD00BF00000140ECCF0110C6
:10488000E0CF011070B5324B984284B004460D461B
:104890001BD003F58053984217D003F580539842FC
:1048A00013D003F5805398420FD003F5DB2303F5B3
:1048B0008063984209D003F58063984205D025496A
:1048C00025484FF4E772FCF7AFFB002D3BD023499E
:1048D000234A0E687608A6FB055600232846314673
:1048E00009F0E0F91F4A03464FF0FF30A842B241F9
:1048F0002BD2002215465B0843EAC17398424FEA67
:10490000510175EB010602F10102F4D31201D1B29B
:1049100000252046CDE902358DF804108DF80550AC
:10492000ADF80650FFF7F8FC2A4601A92046FFF72C
:1049300067FBA36943F000432046A361FFF7EEFC49
:104940002046FFF7E7FC04B070BD0021E0E700BFA0
:1049500000000140ECCF0110E0CF01101016012043
:1049600040420F003F420F002DE9F04F534E85B0FB
:10497000B042CDE9012305460C461AD0504B98426F
:1049800017D003F58053984213D003F58053984213
:104990000FD003F5DB2303F58063984209D003F5BC
:1049A0008063984205D0474947484FF4FB72FCF7B3
:1049B0003BFB28462E69FFF755FD051E60DB0123F2
:1049C000C6F3031603FA06F6F317A6FB046104FB0D
:1049D000031463014FEA461ABAEB060943EAD663A9
:1049E00063EB040803934FEA48284FEA49239B19D5
:1049F00048EAD95844EB08089F014FEA881242EA76
:104A00009362FF1A62EB0808304ABF1982FB053235
:104A10004FEAE57B44EB0808CBEBA212D3173846EC
:104A2000414609F03FF979B3384641462A465B468C
:104A300009F038F989B3039BBAEB060A63EB04016A
:104A4000890041EA99714FEA890919EB060944EB9B
:104A50000101C90041EA59714FEAC9002A465B4683
:104A600009F020F921B32A465B463046214609F079
:104A700019F9F9B90323019A1060029A0D461370CF
:104A8000284605B0BDE8F08F019B0D461860029BDB
:104A90002846197005B0BDE8F08F019B0D461860DF
:104AA000029B4FF0010228461A7005B0BDE8F08F56
:104AB0000223E0E76FF00305E2E700BF00000140DA
:104AC00000100140ECCF0110E0CF0110D34D621077
:104AD00008B5174B984210D0164B984215D0164B7C
:104AE00098421AD0154B98421FD14420FEF7CAF9BC
:104AF0004420FEF73BF8002008BD0B20FEF7C2F96A
:104B00000920FEF733F8002008BD0C20FEF7BAF9A3
:104B10000A20FEF72BF8002008BD1C20FEF7B2F992
:104B20002120FEF723F8002008BD6FF0020008BD29
:104B300000200440003004400040044000140840BD
:104B4000214B10B504469C42084629D003F58053FA
:104B50009C4225D003F580539C4221D003F5753348
:104B60009C4222D10523042A636121D12368B0F538
:104B7000166F43F4001323608CBF0023012363618D
:104B80004FF480310246204600F066F9002806DD29
:104B9000236843F40043236023681B03FCD510BD46
:104BA000052363615AB1022A06D06FF0020010BDDE
:104BB000FBD822B1022AF8D14FF4E101E2E7034B1E
:104BC00019684908DEE700BF0020044010160120E4
:104BD00000F050B900F05EB900F070B9164B984281
:104BE00010B5044612D003F5805398420ED003F559
:104BF000805398420AD003F57533984203D10229B5
:104C000007D0042910D06FF0020010BD39B102297D
:104C1000F9D10520FDF7F2FF02210028F5D1204649
:104C2000BDE8104000F094B90620FDF7E7FF03212E
:104C30000028F4D0E9E700BF0020044010B5044686
:104C400000F0DAF90F4B9C420DD003F580539C42E3
:104C500009D003F580539C4205D003F575339C427F
:104C600008D0FD2010BD0028FCD0022814BFF92078
:104C7000022010BD0228F5D0032814BFF92004201B
:104C800010BD00BF0020044070B504460E46154616
:104C9000FFF71EFF10BB1C4B9C4227D01B4B9C42B6
:104CA0001DD01B4B9C4228D01A4B9C4214D11A4851
:104CB000FEF738FB4420FDF77BFF29462046FFF72F
:104CC0008DFF58B92046FFF7B9FF3146024620460E
:104CD000BDE8704000F050B86FF0020070BD0F48A2
:104CE000FEF720FB0A20FDF763FFE6E70C48FEF71E
:104CF00019FB0920FDF75CFFDFE70A48FEF712FB0E
:104D00002120FDF755FFD8E7002004400030044083
:104D1000004004400014084090CE011078CE0110ED
:104D20006CCE011084CE011000F06AB900F070B9A9
:104D300000F008B800F012B800F074B900F076B9CD
:104D400000F07AB910B504462046FFF7F5FF0028B9
:104D5000FAD02046BDE81040FFF7E6BF38B504465C
:104D60000D462046FFF7EAFF0028FAD029462046E4
:104D7000BDE83840FFF7DABFF8B5324CA04205462F
:104D80000F4616460FD0304B98420CD003F5805397
:104D9000984208D003F57533984204D02B492C482B
:104DA0008622FCF741F901212846FFF7C9FF044696
:104DB00008B12046F8BD08212846FFF709FF044640
:104DC0000028F6D101462846FFF706FF04460028D2
:104DD000EFD101462846FFF7FDFE04460028E8D142
:104DE000324639462846FFF7ABFE002821DB154B3B
:104DF0009D4220D003F580539D421ED003F5805381
:104E00009D421CD003F575339D420CBF03234FF028
:104E1000FF33104803EB430300EBC3024FF0FF31B5
:104E2000DB00C2E902110021C150516011745161CF
:104E3000BFE70446BDE72346EBE70123E9E702238A
:104E4000E7E700BF002004400030044030D00110EC
:104E500078D00110180000209142B1FBF2F304D386
:104E600002FB1311B1EB520F00D90133036110465D
:104E7000704700BF05390329024607D8036823F4A9
:104E8000406343EA81210020116070476FF0020007
:104E9000704700BF61B1012906D10368002143F4C6
:104EA00080530360084670476FF002010846704760
:104EB000036823F4805303600846704703460429BF
:104EC00042D8DFE801F0111725330300026842F0F1
:104ED00010021A601A6842F020021A601A6842F042
:104EE000400200201A607047026822F01002002081
:104EF0001A607047026842F010021A601A6822F0C5
:104F000020021A601A6822F0400200201A607047DE
:104F1000026842F010021A601A6822F020021A6039
:104F20001A6842F0400200201A607047026842F09E
:104F300010021A601A6842F020021A601A6822F001
:104F4000400200201A6070476FF00200704700BFF7
:104F5000032938B50D46044630D8234B9C4236D041
:104F600003F580539C4227D003F580539C4238D0F0
:104F700003F575339C420CBF03234FF0FF331B4AEC
:104F8000D35CBBB9236813F4004F4FEA054523688F
:104F90001FD023F400432360236805F4403523F435
:104FA00040331D432560236843F400432360236896
:104FB0001B03FCD5002038BD0123E0E70C490D4858
:104FC00040F23312FCF730F8074B9C42C8D1002363
:104FD000D5E723F4403305F440351D432560002018
:104FE00038BD0223CBE700BF00200440C0110120E0
:104FF00030D00110A8D001100068C0F30140704704
:105000004368DB0654BF006A6FF00C00704700BFB6
:10501000436813F0800306BF016218466FF00B006F
:10502000704700BF4068C0F3032070474068C0F37A
:105030000330C0F1080070474B1E072B024606D80C
:10504000036823F00F0319430020116070476FF0CD
:105050000200704750E8003F3BB940E80013002BC6
:10506000F8D1BFF35F8F184670476FF005007047A7
:10507000BFF35F8F00230360704700BF10B5064C7D
:10508000217831B905484FF4007200F019FC012372
:105090002370002010BD00BFC5150120C4110120E0
:1050A000032870B5054625D8E0B9174E3046FEF7FF
:1050B000ADFA044601463046FEF79CFA8CB1134E19
:1050C000134B06EBC51603EBC515E30703D52B6899
:1050D0000BB130689847640806F1040605F1040531
:1050E000F3D170BD01280CD00A4E0B4B022818BF1B
:1050F0001E46DBE709490A484E22FBF795FF0026CA
:10510000D4E7084ED2E700BF00800040C41301205E
:10511000C41101200004084000060840D0D001104E
:1051200018D1011000900040014B1878704700BF63
:10513000C415012010B50446FFF7EEF82046002103
:10514000BDE81040FFF7ECB84FF0FF31FFF7EAB8C9
:1051500038B50546FFF7EAF804462846FFF7E4F8B5
:10516000204638BD00B583B00DF10303016801AAE4
:10517000FFF7E2F89DF803300198022B0AD0032BC9
:105180000FD0012B03D00A4BA3FB0030800903B0E2
:105190005DF804FB4FF47A7303FB00F003B05DF895
:1051A00004FB044B03FB00F003B05DF804FB00BFFD
:1051B000D34D621040420F00014B1868704700BF8A
:1051C0007800002070B50D4E0D4D761BB61006D040
:1051D000002455F8043B01349847A642F9D1094E02
:1051E000094D761B18F0B8F9B61006D0002455F812
:1051F000043B01349847A642F9D170BD280A00202B
:10520000280A0020300A0020280A0020024B01460C
:10521000186800F00BB800BF78000020024B014670
:10522000186805F0D3BA00BF780000202DE9F04FD0
:1052300001F10B06162E83B0044624D8102900F283
:10524000BA8000F08FFB102618220220B54F3A4496
:10525000A2F1080153688B4200F0BA805A68D968FD
:1052600022F003021A449D68E9608D60516841F0A4
:1052700001012046516003F1080500F079FB284642
:1052800003B0BDE8F08F36F0070600F19480B1421C
:1052900000F2918000F066FBB6F5FC7FC0F09A81C9
:1052A000730A00F08F80042B00F26F81B30903F1C1
:1052B000390003F1380CC3009A4F3B44A3F10805B1
:1052C0005B689D4206D10CE0002980F22781DB68F3
:1052D0009D4206D05A6822F00302911B0F29F3DD8C
:1052E00060463D69DFF850C265457CD06A6822F0AF
:1052F0000302931B0F2B00F37B81002BC7E904CC27
:1053000080F26C81B2F5007F80F01A81D308796851
:1053100001334FEA521E012202FA0EF20A4357F8F5
:1053200033E0C5F808E007EBC3010839E9607A60AB
:1053300047F83350CEF80C50831001219940914228
:1053400057D8114206D120F003004900114200F164
:105350000400FAD007EBC0094D468646D5F80C800C
:10536000454508D11DE1002B80F22481D8F80C803E
:10537000454500F01681D8F8042022F00302931B63
:105380000F2BF0DD2046D8E9025408EB060146F069
:105390000106C8F80460EC60A56043F00104C7E9A9
:1053A0000411C1E902CC4C6048F8023000F0E0FA88
:1053B00008F1080502E00C2323600025284603B00D
:1053C000BDE8F08F4FF4007340204FF03F0C73E7BF
:1053D000D3689A4208BF02307FF440AF3D69DFF8DE
:1053E00058C1654582D17A68831001219940914264
:1053F000A7D9BD686B6823F003094E4503D8A9EB14
:1054000006030F2B7ADCDFF834B1474BDBF80020C2
:105410001B680132334405EB090A00F0338103F5C0
:1054200080530F3323F47F6828F00F08414620464D
:1054300000F016FB411C024600F0F380824500F2AA
:10544000EE803A4B196841441960084600F04E81DD
:10545000DBF80010019301311BBFA2EB0A0A504494
:10546000CBF80020186012F0070B00F01781CBF189
:1054700008010A44CBF5805190440831A1EB0801A2
:10548000C1F30B0A51462046009200F0E9FA421C93
:10549000DDE9002300F04F81801A00EB0A0819684B
:1054A000BA6048F001005144BD425060196000F0FC
:1054B0002981B9F10F0F40F227816868A9F10C0C1E
:1054C0002CF0070C00F0010040EA0C0068604FF07F
:1054D000050E05EB0C00BCF10F0FC0E901EE00F268
:1054E000328150681546124B1A688A4238BF1960DB
:1054F000104B1A688A4238BF196094E0AA1943F029
:10550000010346F001066E602046BA60536000F069
:105510002FFA0835284603B0BDE8F08FD9681A4441
:10552000A1E600BFA8040020F8150120C81501203D
:10553000F0150120F4150120B0040020B00800206F
:10554000B2F5206F4FEA522363D3142B00F2B780D9
:1055500003F15C01C9005B3307EB010E7958AEF132
:10556000080E8E4500F091804B6823F003039342B0
:1055700002D989688E45F7D1D1F80CE07A68C5E97F
:10558000021ECEF80850CD60D6E6142B59D9542B04
:1055900000F29D80330B03F16F0003F16E0CC3002A
:1055A0008AE60EF1010E1EF0030F05F108057FF4E7
:1055B000D5AE51E0424445465368D8F80C1043F04C
:1055C0000103536055F8083F2046D9608B6000F016
:1055D000CFF9F3E6F00806F1080237E62A44204640
:1055E000536843F001035360083500F0C1F9E5E664
:1055F000A919204646F0010643F001046E60C7E990
:105600000411C1E902CC4C60AB5000F0B1F908358F
:10561000D4E6930903F13901C90038339CE7BD4250
:105620005FD0BD68686820F003084645A8EB060314
:1056300002D80F2B3FF762AF204600F099F9002502
:10564000BCE603F15C0003F15B0CC30034E659F8DF
:1056500008394B4540F0968010F0030F00F1FF3001
:10566000F5D17B6823EA01037B60490099423FF64C
:10567000C0AE19B9BDE649000EF1040E1942FAD0C8
:10568000704667E603F11008D0E69A104FF0010863
:105690007B6808FA02F21A437A6070E702EB0801AD
:1056A0004942C1F30B0A51462046009200F0D8F956
:1056B000431CDDE900237FF4EFAEDA46EFE6542B1E
:1056C00025D8130B03F16F01C9006E3344E7B3F51E
:1056D000AA7F25D8F30B03F1780003F1770CC30000
:1056E000EAE5294B186840441860B1E6CAF30B0C90
:1056F000BCF1000F7FF4ACAEBD68C84448F00100B7
:105700006860F0E61546EEE60123536094E7B3F5D2
:10571000AA7F23D8D30B03F17801C90077331BE7A5
:1057200040F25452934223D8B30C03F17D0003F1AD
:105730007C0CC300C0E5ABF1080BD844A8EB020811
:105740004FF0000AABE605F108012046009305F092
:105750003DF8BD68009B68681968C4E640F2545182
:105760008B420BD8930C03F17D01C9007C33F3E627
:105770004FF47E737F204FF07E0C9DE54FF47E71D9
:105780007E23E9E67B6870E7C8150120844641EA7C
:10579000000313F003036DD1403A41D351F8043BA9
:1057A00040F8043B51F8043B40F8043B51F8043BFB
:1057B00040F8043B51F8043B40F8043B51F8043BEB
:1057C00040F8043B51F8043B40F8043B51F8043BDB
:1057D00040F8043B51F8043B40F8043B51F8043BCB
:1057E00040F8043B51F8043B40F8043B51F8043BBB
:1057F00040F8043B51F8043B40F8043B51F8043BAB
:1058000040F8043B51F8043B40F8043B51F8043B9A
:1058100040F8043B51F8043B40F8043B403ABDD209
:10582000303211D351F8043B40F8043B51F8043BAB
:1058300040F8043B51F8043B40F8043B51F8043B6A
:1058400040F8043B103AEDD20C3205D351F8043B3A
:1058500040F8043B043AF9D2043208D0D2071CBF06
:1058600011F8013B00F8013B01D30B88038060462F
:10587000704700BF082A13D38B078DD010F00303A5
:105880008AD0C3F10403D21ADB071CBF11F8013B15
:1058900000F8013B80D331F8023B20F8023B7BE764
:1058A000043AD9D3013A11F8013B00F8013BF9D28F
:1058B0000B7803704B7843708B7883706046704729
:1058C000830730B548D0541E002A3FD0CAB20346E1
:1058D00001E0013C3AD303F8012B9D07F9D1032CD9
:1058E0002DD9CDB245EA05250F2C45EA054536D917
:1058F000A4F1100222F00F0C03F1200EE6444FEA4F
:10590000121C03F1100242E9045542E9025510321B
:105910007245F8D10CF1010214F00C0F03EB0212E6
:1059200004F00F0C13D0ACF1040323F00303043391
:10593000134442F8045B9342FBD10CF003042CB1F6
:10594000CAB21C4403F8012B9C42FBD130BD644613
:105950001346002CF4D1F9E703461446BFE71A4674
:10596000A446E0E7014805F0DBB900BF00160120BE
:10597000014805F0D7B900BF001601200FB400B5EB
:10598000074983B004AB086853F8042B816801937E
:1059900001F0AAFE03B05DF804EB04B0704700BF4D
:1059A00078000020024B01461868826805F0AEBE00
:1059B0007800002070B5054688B008460C4600F017
:1059C000BFF8224EAA6B059001214318CDE906616C
:1059D00004A8022104940393AC680190029122B3BD
:1059E000636E13F0010FB4F90C309AB201D198052F
:1059F00025D5910406D4626E43F4005322F400527C
:105A0000A3816266284601AA214604F0E5FF636E81
:105A1000002814BF4FF0FF350A25DA0702D4A38906
:105A20009B0506D5284608B070BD284604F0D6FD73
:105A3000D6E7A06D05F076F9284608B070BDA06DD8
:105A400005F06EF9B4F90C309AB2D2E760CA0110D1
:105A5000024B01461868FFF7ADBF00BF7800002079
:105A600038B5074D0022044608462A60FCF7D0FEF0
:105A7000431C00D038BD2B68002BFBD0236038BD01
:105A80000C1601200CB410B51F4B00291C689CB0EB
:105A900035DB4FF40273ADF81430029006901FAB63
:105AA00018D001394FF6FF7204910791ADF8162016
:105AB00002A91E9A0193204600F0B2F8421C01DAB6
:105AC0008B232360029B00221A701CB0BDE810409B
:105AD00002B070474FF6FF7204910791ADF816209F
